20250703-09:50:08.237 : 8=FIX.4.4|9=75|35=A|34=2|49=GENERATOR|52=20250703-09:50:08.180|56=ACCUMULATOR|98=0|108=30|10=236|
20250703-09:50:08.426 : 8=FIX.4.4|9=75|35=A|34=1|49=ACCUMULATOR|52=20250703-09:50:08.386|56=GENERATOR|98=0|108=30|10=243|
20250703-09:50:08.473 : 8=FIX.4.4|9=72|35=2|34=2|49=ACCUMULATOR|52=20250703-09:50:08.413|56=GENERATOR|7=1|16=0|10=059|
20250703-09:50:08.484 : 8=FIX.4.4|9=193|35=D|34=1|43=Y|49=GENERATOR|52=20250703-09:50:08.481|56=ACCUMULATOR|122=20250703-09:38:54.166|11=24b70f82-4fcb-43ff-b85c-58f616e91491|38=1|40=2|44=2|54=1|55=PETR4|59=0|60=20250703-09:38:54.127|10=057|
20250703-09:50:08.489 : 8=FIX.4.4|9=105|35=4|34=2|43=Y|49=GENERATOR|52=20250703-09:50:08.488|56=ACCUMULATOR|122=20250703-09:50:08.488|36=3|123=Y|10=015|
20250703-09:50:08.588 : 8=FIX.4.4|9=183|35=8|34=3|49=ACCUMULATOR|52=20250703-09:50:08.561|56=GENERATOR|6=2|14=1|17=52f4b0a0-5179-42d2-ba89-8dbfb1ccc59e|37=d37519a4-e300-4ca2-afd6-b1a85ebfda5a|39=0|54=1|55=PETR4|150=0|151=1|10=140|
20250703-09:50:09.053 : 8=FIX.4.4|9=165|35=D|34=3|49=GENERATOR|52=20250703-09:50:09.049|56=ACCUMULATOR|11=f5384a9e-8e3c-411d-a21a-c91cc5c5a10a|38=11|40=2|44=122|54=2|55=VALE3|59=0|60=20250703-09:50:09.042|10=019|
20250703-09:50:09.093 : 8=FIX.4.4|9=187|35=8|34=4|49=ACCUMULATOR|52=20250703-09:50:09.060|56=GENERATOR|6=122|14=11|17=b37037ea-d067-4540-873d-a384f0001990|37=06217ed1-806b-41a7-8a9e-0bde3b7879c8|39=0|54=2|55=VALE3|150=0|151=11|10=020|
20250703-09:50:09.095 : 8=FIX.4.4|9=63|35=5|34=4|49=GENERATOR|52=20250703-09:50:09.095|56=ACCUMULATOR|10=204|
20250703-09:50:09.139 : 8=FIX.4.4|9=63|35=5|34=5|49=ACCUMULATOR|52=20250703-09:50:09.112|56=GENERATOR|10=195|
20250703-09:52:13.213 : 8=FIX.4.4|9=75|35=A|34=5|49=GENERATOR|52=20250703-09:52:13.023|56=ACCUMULATOR|98=0|108=30|10=233|
20250703-09:52:13.348 : 8=FIX.4.4|9=75|35=A|34=6|49=ACCUMULATOR|52=20250703-09:52:13.344|56=GENERATOR|98=0|108=30|10=240|
20250703-09:52:13.932 : 8=FIX.4.4|9=169|35=D|34=6|49=GENERATOR|52=20250703-09:52:13.928|56=ACCUMULATOR|11=4eb65df2-5184-4fbc-8698-9245d61de116|38=10|40=2|44=5000000|54=1|55=PETR4|59=0|60=20250703-09:52:13.913|10=087|
20250703-09:52:13.941 : 8=FIX.4.4|9=191|35=8|34=7|49=ACCUMULATOR|52=20250703-09:52:13.934|56=GENERATOR|6=5000000|14=10|17=2e56b93a-24d9-441a-a823-09e80d47a1f3|37=249afc2d-2c48-4981-9399-4b0b3dcd157e|39=0|54=1|55=PETR4|150=0|151=10|10=129|
20250703-09:52:13.945 : 8=FIX.4.4|9=63|35=5|34=7|49=GENERATOR|52=20250703-09:52:13.945|56=ACCUMULATOR|10=208|
20250703-09:52:13.947 : 8=FIX.4.4|9=63|35=5|34=8|49=ACCUMULATOR|52=20250703-09:52:13.946|56=GENERATOR|10=210|
20250703-09:52:36.812 : 8=FIX.4.4|9=75|35=A|34=8|49=GENERATOR|52=20250703-09:52:36.809|56=ACCUMULATOR|98=0|108=30|10=253|
20250703-09:52:36.827 : 8=FIX.4.4|9=75|35=A|34=9|49=ACCUMULATOR|52=20250703-09:52:36.826|56=GENERATOR|98=0|108=30|10=253|
20250703-09:52:37.797 : 8=FIX.4.4|9=170|35=D|34=9|49=GENERATOR|52=20250703-09:52:37.796|56=ACCUMULATOR|11=72a28b3d-0bd2-4301-91f0-f0874bda939b|38=10|40=2|44=50000000|54=1|55=PETR4|59=0|60=20250703-09:52:37.796|10=172|
20250703-09:52:37.838 : 8=FIX.4.4|9=184|35=8|34=10|49=ACCUMULATOR|52=20250703-09:52:37.832|56=GENERATOR|6=0|14=0|17=146ec0a4-33dc-4d37-8f09-debbcb341b5d|37=907e63d2-2dd1-4883-a40b-29dd9b8784fd|39=8|54=1|55=PETR4|150=8|151=0|10=036|
20250703-09:52:37.839 : 8=FIX.4.4|9=64|35=5|34=10|49=GENERATOR|52=20250703-09:52:37.838|56=ACCUMULATOR|10=002|
20250703-09:52:37.851 : 8=FIX.4.4|9=64|35=5|34=11|49=ACCUMULATOR|52=20250703-09:52:37.846|56=GENERATOR|10=002|
20250703-09:53:13.497 : 8=FIX.4.4|9=76|35=A|34=11|49=GENERATOR|52=20250703-09:53:13.496|56=ACCUMULATOR|98=0|108=30|10=038|
20250703-09:53:13.505 : 8=FIX.4.4|9=76|35=A|34=12|49=ACCUMULATOR|52=20250703-09:53:13.504|56=GENERATOR|98=0|108=30|10=029|
20250703-09:53:14.480 : 8=FIX.4.4|9=171|35=D|34=12|49=GENERATOR|52=20250703-09:53:14.480|56=ACCUMULATOR|11=60ed19d4-9ac3-4ab1-9b63-33217393911a|38=10|40=2|44=50000000|54=1|55=VIIA4|59=0|60=20250703-09:53:14.479|10=085|
20250703-09:53:14.510 : 8=FIX.4.4|9=184|35=8|34=13|49=ACCUMULATOR|52=20250703-09:53:14.508|56=GENERATOR|6=0|14=0|17=e4045c8c-553c-4d22-8c9e-9e7429e058c2|37=45cc7c4a-684e-4cce-922e-9cf801b0cb15|39=8|54=1|55=VIIA4|150=8|151=0|10=188|
20250703-09:53:14.510 : 8=FIX.4.4|9=64|35=5|34=13|49=GENERATOR|52=20250703-09:53:14.510|56=ACCUMULATOR|10=244|
20250703-09:53:14.512 : 8=FIX.4.4|9=64|35=5|34=14|49=ACCUMULATOR|52=20250703-09:53:14.511|56=GENERATOR|10=246|
20250703-09:53:28.671 : 8=FIX.4.4|9=76|35=A|34=14|49=GENERATOR|52=20250703-09:53:28.670|56=ACCUMULATOR|98=0|108=30|10=041|
20250703-09:53:28.679 : 8=FIX.4.4|9=76|35=A|34=15|49=ACCUMULATOR|52=20250703-09:53:28.678|56=GENERATOR|98=0|108=30|10=050|
20250703-09:53:29.675 : 8=FIX.4.4|9=171|35=D|34=15|49=GENERATOR|52=20250703-09:53:29.674|56=ACCUMULATOR|11=fe45b5da-4c4f-42d4-a0ee-dbdb4648b9fc|38=10|40=2|44=50000000|54=1|55=VIIA4|59=0|60=20250703-09:53:29.674|10=030|
20250703-09:53:29.696 : 8=FIX.4.4|9=64|35=5|34=16|49=GENERATOR|52=20250703-09:53:29.696|56=ACCUMULATOR|10=012|
20250703-09:53:29.741 : 8=FIX.4.4|9=184|35=8|34=16|49=ACCUMULATOR|52=20250703-09:53:29.695|56=GENERATOR|6=0|14=0|17=475bf62b-8d11-445e-a3e8-865833e95a2e|37=949cecc8-d950-4774-931f-498f1b307132|39=8|54=1|55=VIIA4|150=8|151=0|10=194|
20250703-09:53:29.763 : 8=FIX.4.4|9=64|35=5|34=17|49=ACCUMULATOR|52=20250703-09:53:29.746|56=GENERATOR|10=009|
20250703-09:54:23.273 : 8=FIX.4.4|9=76|35=A|34=17|49=GENERATOR|52=20250703-09:54:23.272|56=ACCUMULATOR|98=0|108=30|10=038|
20250703-09:54:23.280 : 8=FIX.4.4|9=76|35=A|34=18|49=ACCUMULATOR|52=20250703-09:54:23.280|56=GENERATOR|98=0|108=30|10=038|
20250703-09:54:24.259 : 8=FIX.4.4|9=171|35=D|34=18|49=GENERATOR|52=20250703-09:54:24.259|56=ACCUMULATOR|11=db195a23-e9d9-4916-9638-851f137d8643|38=10|40=2|44=50000000|54=2|55=VIIA4|59=0|60=20250703-09:54:24.259|10=036|
20250703-09:54:24.276 : 8=FIX.4.4|9=64|35=5|34=19|49=GENERATOR|52=20250703-09:54:24.275|56=ACCUMULATOR|10=004|
20250703-09:54:24.409 : 8=FIX.4.4|9=184|35=8|34=19|49=ACCUMULATOR|52=20250703-09:54:24.394|56=GENERATOR|6=0|14=0|17=1560c677-8561-476e-8e61-44d3204ae4b2|37=1838f039-3535-498b-97db-789fa41e5d83|39=8|54=2|55=VIIA4|150=8|151=0|10=046|
20250703-09:54:24.430 : 8=FIX.4.4|9=64|35=5|34=20|49=ACCUMULATOR|52=20250703-09:54:24.429|56=GENERATOR|10=253|
20250703-09:54:44.273 : 8=FIX.4.4|9=76|35=A|34=20|49=GENERATOR|52=20250703-09:54:44.272|56=ACCUMULATOR|98=0|108=30|10=035|
20250703-09:54:44.282 : 8=FIX.4.4|9=76|35=A|34=21|49=ACCUMULATOR|52=20250703-09:54:44.281|56=GENERATOR|98=0|108=30|10=036|
20250703-09:54:45.277 : 8=FIX.4.4|9=170|35=D|34=21|49=GENERATOR|52=20250703-09:54:45.274|56=ACCUMULATOR|11=106721c7-81ae-4629-9e1d-22a38de72f0b|38=10|40=2|44=5000000|54=2|55=VIIA4|59=0|60=20250703-09:54:45.274|10=093|
20250703-09:54:45.294 : 8=FIX.4.4|9=64|35=5|34=22|49=GENERATOR|52=20250703-09:54:45.291|56=ACCUMULATOR|10=255|
20250703-09:54:45.424 : 8=FIX.4.4|9=192|35=8|34=22|49=ACCUMULATOR|52=20250703-09:54:45.412|56=GENERATOR|6=5000000|14=10|17=de4649ef-81f1-4534-8e95-f132a729940d|37=0d4daadb-d72a-4a71-9e4e-bf4044e21f69|39=0|54=2|55=VIIA4|150=0|151=10|10=049|
20250703-09:54:45.427 : 8=FIX.4.4|9=64|35=5|34=23|49=ACCUMULATOR|52=20250703-09:54:45.425|56=GENERATOR|10=255|
20250703-09:55:00.409 : 8=FIX.4.4|9=76|35=A|34=23|49=GENERATOR|52=20250703-09:55:00.409|56=ACCUMULATOR|98=0|108=30|10=033|
20250703-09:55:00.420 : 8=FIX.4.4|9=76|35=A|34=24|49=ACCUMULATOR|52=20250703-09:55:00.419|56=GENERATOR|98=0|108=30|10=035|
20250703-09:55:01.401 : 8=FIX.4.4|9=170|35=D|34=24|49=GENERATOR|52=20250703-09:55:01.401|56=ACCUMULATOR|11=a3bc4cf1-6b04-402d-b3ca-19a9ddfe3b85|38=10|40=2|44=5000000|54=1|55=VIIA4|59=0|60=20250703-09:55:01.400|10=083|
20250703-09:55:01.449 : 8=FIX.4.4|9=64|35=5|34=25|49=GENERATOR|52=20250703-09:55:01.447|56=ACCUMULATOR|10=254|
20250703-09:55:01.462 : 8=FIX.4.4|9=192|35=8|34=25|49=ACCUMULATOR|52=20250703-09:55:01.405|56=GENERATOR|6=5000000|14=10|17=19d5547b-7d39-4611-a29e-297769a9f108|37=893bf76b-1425-4e89-95ce-c17be9d845ae|39=0|54=1|55=VIIA4|150=0|151=10|10=104|
20250703-09:55:01.462 : 8=FIX.4.4|9=64|35=5|34=26|49=ACCUMULATOR|52=20250703-09:55:01.451|56=GENERATOR|10=250|
20250703-09:55:18.546 : 8=FIX.4.4|9=76|35=A|34=26|49=GENERATOR|52=20250703-09:55:18.545|56=ACCUMULATOR|98=0|108=30|10=046|
20250703-09:55:18.557 : 8=FIX.4.4|9=76|35=A|34=27|49=ACCUMULATOR|52=20250703-09:55:18.556|56=GENERATOR|98=0|108=30|10=049|
20250703-09:55:19.539 : 8=FIX.4.4|9=170|35=D|34=27|49=GENERATOR|52=20250703-09:55:19.538|56=ACCUMULATOR|11=4945d224-0554-456a-9146-4b9fee0d82fe|38=10|40=2|44=5000000|54=2|55=VIIA4|59=0|60=20250703-09:55:19.537|10=076|
20250703-09:55:19.560 : 8=FIX.4.4|9=192|35=8|34=28|49=ACCUMULATOR|52=20250703-09:55:19.542|56=GENERATOR|6=5000000|14=10|17=4ee8e06c-7ec3-4269-a857-a24827988672|37=82269c2e-8d2b-40fe-9ca8-86913d55bd2c|39=0|54=2|55=VIIA4|150=0|151=10|10=157|
20250703-09:55:19.560 : 8=FIX.4.4|9=64|35=5|34=28|49=GENERATOR|52=20250703-09:55:19.560|56=ACCUMULATOR|10=006|
20250703-09:55:19.569 : 8=FIX.4.4|9=64|35=5|34=29|49=ACCUMULATOR|52=20250703-09:55:19.561|56=GENERATOR|10=008|
20250703-09:55:34.188 : 8=FIX.4.4|9=76|35=A|34=29|49=GENERATOR|52=20250703-09:55:34.187|56=ACCUMULATOR|98=0|108=30|10=049|
20250703-09:55:34.209 : 8=FIX.4.4|9=76|35=A|34=30|49=ACCUMULATOR|52=20250703-09:55:34.206|56=GENERATOR|98=0|108=30|10=033|
20250703-09:55:35.177 : 8=FIX.4.4|9=170|35=D|34=30|49=GENERATOR|52=20250703-09:55:35.176|56=ACCUMULATOR|11=b88bdf55-1a76-438e-8c94-ded45d0eb07d|38=10|40=2|44=4000000|54=2|55=VIIA4|59=0|60=20250703-09:55:35.176|10=049|
20250703-09:55:35.204 : 8=FIX.4.4|9=192|35=8|34=31|49=ACCUMULATOR|52=20250703-09:55:35.186|56=GENERATOR|6=4000000|14=10|17=42d9dfa1-1432-4e41-b498-fd7e04cf6797|37=acc1e6ae-4c71-4439-9d23-977a958a2253|39=0|54=2|55=VIIA4|150=0|151=10|10=178|
20250703-09:55:35.205 : 8=FIX.4.4|9=64|35=5|34=31|49=GENERATOR|52=20250703-09:55:35.205|56=ACCUMULATOR|10=250|
20250703-09:55:35.211 : 8=FIX.4.4|9=64|35=5|34=32|49=ACCUMULATOR|52=20250703-09:55:35.206|56=GENERATOR|10=252|
20250703-09:55:47.699 : 8=FIX.4.4|9=76|35=A|34=32|49=GENERATOR|52=20250703-09:55:47.698|56=ACCUMULATOR|98=0|108=30|10=054|
20250703-09:55:47.706 : 8=FIX.4.4|9=76|35=A|34=33|49=ACCUMULATOR|52=20250703-09:55:47.706|56=GENERATOR|98=0|108=30|10=045|
20250703-09:55:48.702 : 8=FIX.4.4|9=170|35=D|34=33|49=GENERATOR|52=20250703-09:55:48.702|56=ACCUMULATOR|11=bd73765d-47ed-48b4-be32-bc6adc42373d|38=10|40=2|44=1500000|54=2|55=VIIA4|59=0|60=20250703-09:55:48.702|10=039|
20250703-09:55:48.742 : 8=FIX.4.4|9=64|35=5|34=34|49=GENERATOR|52=20250703-09:55:48.732|56=ACCUMULATOR|10=006|
20250703-09:55:48.760 : 8=FIX.4.4|9=184|35=8|34=34|49=ACCUMULATOR|52=20250703-09:55:48.717|56=GENERATOR|6=0|14=0|17=a689a8b4-a0de-4489-8693-a0130a5ffd77|37=4488326c-e75f-4b9c-84e4-065f60540b62|39=8|54=2|55=VIIA4|150=8|151=0|10=232|
20250703-09:55:48.761 : 8=FIX.4.4|9=64|35=5|34=35|49=ACCUMULATOR|52=20250703-09:55:48.751|56=GENERATOR|10=008|
20250703-09:55:54.591 : 8=FIX.4.4|9=76|35=A|34=35|49=GENERATOR|52=20250703-09:55:54.590|56=ACCUMULATOR|98=0|108=30|10=046|
20250703-09:55:54.599 : 8=FIX.4.4|9=76|35=A|34=36|49=ACCUMULATOR|52=20250703-09:55:54.598|56=GENERATOR|98=0|108=30|10=055|
20250703-09:55:55.571 : 8=FIX.4.4|9=170|35=D|34=36|49=GENERATOR|52=20250703-09:55:55.571|56=ACCUMULATOR|11=614e0889-8e86-44fa-b950-38d022bbd62c|38=10|40=2|44=1500000|54=1|55=VIIA4|59=0|60=20250703-09:55:55.571|10=116|
20250703-09:55:55.575 : 8=FIX.4.4|9=192|35=8|34=37|49=ACCUMULATOR|52=20250703-09:55:55.572|56=GENERATOR|6=1500000|14=10|17=523c6bdf-43c7-4c1a-b287-2809fa2d2d0c|37=bf85ac80-c4a3-471c-ab78-25edbc4e3a41|39=0|54=1|55=VIIA4|150=0|151=10|10=220|
20250703-09:55:55.577 : 8=FIX.4.4|9=64|35=5|34=37|49=GENERATOR|52=20250703-09:55:55.576|56=ACCUMULATOR|10=013|
20250703-09:55:55.578 : 8=FIX.4.4|9=64|35=5|34=38|49=ACCUMULATOR|52=20250703-09:55:55.577|56=GENERATOR|10=015|
20250703-09:58:57.693 : 8=FIX.4.4|9=76|35=A|34=38|49=GENERATOR|52=20250703-09:58:57.656|56=ACCUMULATOR|98=0|108=30|10=058|
20250703-09:58:57.727 : 8=FIX.4.4|9=76|35=A|34=39|49=ACCUMULATOR|52=20250703-09:58:57.706|56=GENERATOR|98=0|108=30|10=055|
20250703-09:58:58.626 : 8=FIX.4.4|9=165|35=D|34=39|49=GENERATOR|52=20250703-09:58:58.609|56=ACCUMULATOR|11=9a7bf617-8c2c-4e4b-96e3-bdf830046982|38=1|40=2|44=100|54=1|55=PETR4|59=0|60=20250703-09:58:58.600|10=215|
20250703-09:58:58.630 : 8=FIX.4.4|9=186|35=8|34=40|49=ACCUMULATOR|52=20250703-09:58:58.627|56=GENERATOR|6=100|14=1|17=81868643-3feb-42d4-b8be-65ae28db5811|37=1b48f703-9c95-474b-a5be-9885b86ab9c5|39=0|54=1|55=PETR4|150=0|151=1|10=232|
20250703-09:59:28.985 : 8=FIX.4.4|9=64|35=0|34=41|49=ACCUMULATOR|52=20250703-09:59:28.984|56=GENERATOR|10=010|
20250703-09:59:28.987 : 8=FIX.4.4|9=64|35=0|34=40|49=GENERATOR|52=20250703-09:59:28.987|56=ACCUMULATOR|10=012|
20250703-09:59:59.315 : 8=FIX.4.4|9=64|35=0|34=41|49=GENERATOR|52=20250703-09:59:59.315|56=ACCUMULATOR|10=002|
20250703-09:59:59.326 : 8=FIX.4.4|9=64|35=0|34=42|49=ACCUMULATOR|52=20250703-09:59:59.325|56=GENERATOR|10=004|
20250703-10:00:29.696 : 8=FIX.4.4|9=64|35=0|34=42|49=GENERATOR|52=20250703-10:00:29.696|56=ACCUMULATOR|10=246|
20250703-10:00:29.718 : 8=FIX.4.4|9=64|35=0|34=43|49=ACCUMULATOR|52=20250703-10:00:29.711|56=GENERATOR|10=235|
20250703-10:01:00.011 : 8=FIX.4.4|9=64|35=0|34=43|49=GENERATOR|52=20250703-10:01:00.010|56=ACCUMULATOR|10=217|
20250703-10:01:00.050 : 8=FIX.4.4|9=64|35=0|34=44|49=ACCUMULATOR|52=20250703-10:01:00.049|56=GENERATOR|10=230|
20250703-10:01:30.523 : 8=FIX.4.4|9=64|35=0|34=44|49=GENERATOR|52=20250703-10:01:30.521|56=ACCUMULATOR|10=228|
20250703-10:01:30.533 : 8=FIX.4.4|9=64|35=0|34=45|49=ACCUMULATOR|52=20250703-10:01:30.530|56=GENERATOR|10=229|
20250703-10:02:00.828 : 8=FIX.4.4|9=64|35=0|34=46|49=ACCUMULATOR|52=20250703-10:02:00.827|56=GENERATOR|10=237|
20250703-10:02:00.829 : 8=FIX.4.4|9=64|35=0|34=45|49=GENERATOR|52=20250703-10:02:00.828|56=ACCUMULATOR|10=237|
20250703-10:02:29.996 : 8=FIX.4.4|9=76|35=A|34=46|49=GENERATOR|52=20250703-10:02:29.957|56=ACCUMULATOR|98=0|108=30|10=041|
20250703-10:02:30.029 : 8=FIX.4.4|9=76|35=A|34=47|49=ACCUMULATOR|52=20250703-10:02:30.019|56=GENERATOR|98=0|108=30|10=023|
20250703-10:02:30.889 : 8=FIX.4.4|9=169|35=D|34=47|49=GENERATOR|52=20250703-10:02:30.879|56=ACCUMULATOR|11=2b0f15fd-9c20-4822-836e-65cc6b7500f9|38=10|40=2|44=100000|54=1|55=PETR4|59=0|60=20250703-10:02:30.873|10=054|
20250703-10:02:30.892 : 8=FIX.4.4|9=191|35=8|34=48|49=ACCUMULATOR|52=20250703-10:02:30.890|56=GENERATOR|6=100000|14=10|17=d1b4e513-fff0-455d-8da5-6fe4e1abc80d|37=b8f649f3-9b08-4594-87e5-1dbf59561ace|39=0|54=1|55=PETR4|150=0|151=10|10=167|
20250703-10:02:38.898 : 8=FIX.4.4|9=64|35=5|34=48|49=GENERATOR|52=20250703-10:02:38.897|56=ACCUMULATOR|10=006|
20250703-10:02:38.900 : 8=FIX.4.4|9=64|35=5|34=49|49=ACCUMULATOR|52=20250703-10:02:38.900|56=GENERATOR|10=248|
20250703-10:02:51.805 : 8=FIX.4.4|9=76|35=A|34=49|49=GENERATOR|52=20250703-10:02:51.804|56=ACCUMULATOR|98=0|108=30|10=030|
20250703-10:02:51.813 : 8=FIX.4.4|9=76|35=A|34=50|49=ACCUMULATOR|52=20250703-10:02:51.813|56=GENERATOR|98=0|108=30|10=022|
20250703-10:02:52.797 : 8=FIX.4.4|9=170|35=D|34=50|49=GENERATOR|52=20250703-10:02:52.795|56=ACCUMULATOR|11=e95bf0b9-12ab-4d57-ba16-c2fa2c448ac6|38=100|40=2|44=500000|54=1|55=PETR4|59=0|60=20250703-10:02:52.794|10=070|
20250703-10:02:52.798 : 8=FIX.4.4|9=184|35=8|34=51|49=ACCUMULATOR|52=20250703-10:02:52.797|56=GENERATOR|6=0|14=0|17=4ebea6f4-b7fa-4844-b152-ab050e6197e4|37=8d3a68f1-daef-40c1-a7a3-99fa554fc767|39=8|54=1|55=PETR4|150=8|151=0|10=089|
20250703-10:02:59.828 : 8=FIX.4.4|9=64|35=5|34=51|49=GENERATOR|52=20250703-10:02:59.828|56=ACCUMULATOR|10=253|
20250703-10:02:59.829 : 8=FIX.4.4|9=64|35=5|34=52|49=ACCUMULATOR|52=20250703-10:02:59.829|56=GENERATOR|10=255|
20250703-10:03:07.922 : 8=FIX.4.4|9=76|35=A|34=52|49=GENERATOR|52=20250703-10:03:07.921|56=ACCUMULATOR|98=0|108=30|10=026|
20250703-10:03:07.927 : 8=FIX.4.4|9=76|35=A|34=53|49=ACCUMULATOR|52=20250703-10:03:07.927|56=GENERATOR|98=0|108=30|10=033|
20250703-10:03:08.919 : 8=FIX.4.4|9=170|35=D|34=53|49=GENERATOR|52=20250703-10:03:08.916|56=ACCUMULATOR|11=ccf8d100-ae5b-4e84-b76a-8e07e3701f66|38=100|40=2|44=100000|54=1|55=PETR4|59=0|60=20250703-10:03:08.916|10=236|
20250703-10:03:08.921 : 8=FIX.4.4|9=193|35=8|34=54|49=ACCUMULATOR|52=20250703-10:03:08.920|56=GENERATOR|6=100000|14=100|17=a55d4de5-e0f7-4627-93e7-01fb3cc1ff53|37=517d2447-a142-44df-a29e-7eb2ca0e8306|39=0|54=1|55=PETR4|150=0|151=100|10=088|
20250703-10:03:15.608 : 8=FIX.4.4|9=64|35=5|34=54|49=GENERATOR|52=20250703-10:03:15.608|56=ACCUMULATOR|10=245|
20250703-10:03:15.616 : 8=FIX.4.4|9=64|35=5|34=55|49=ACCUMULATOR|52=20250703-10:03:15.611|56=GENERATOR|10=240|
20250704-01:47:20.142 : 8=FIX.4.4|9=75|35=A|34=1|49=GENERATOR|52=20250704-01:47:20.117|56=ACCUMULATOR|98=0|108=30|10=228|
20250704-01:47:20.292 : 8=FIX.4.4|9=75|35=A|34=1|49=ACCUMULATOR|52=20250704-01:47:20.251|56=GENERATOR|98=0|108=30|10=227|
20250704-01:47:21.004 : 8=FIX.4.4|9=162|35=D|34=2|49=GENERATOR|52=20250704-01:47:20.998|56=ACCUMULATOR|11=fa4d0e82-3775-4047-b0d2-37a705bdeaed|38=2|40=2|44=2|54=1|55=PETR4|59=0|60=20250704-01:47:20.990|10=113|
20250704-01:47:21.066 : 8=FIX.4.4|9=183|35=8|34=2|49=ACCUMULATOR|52=20250704-01:47:21.050|56=GENERATOR|6=2|14=2|17=8c30f10f-cc07-4048-9156-992af0723d16|37=93c29425-b095-48fc-9d6e-833005a87212|39=0|54=1|55=PETR4|150=0|151=2|10=206|
20250704-01:47:22.091 : 8=FIX.4.4|9=63|35=5|34=3|49=GENERATOR|52=20250704-01:47:22.090|56=ACCUMULATOR|10=192|
20250704-01:47:22.137 : 8=FIX.4.4|9=63|35=5|34=3|49=ACCUMULATOR|52=20250704-01:47:22.130|56=GENERATOR|10=187|
20250704-01:47:35.111 : 8=FIX.4.4|9=75|35=A|34=4|49=GENERATOR|52=20250704-01:47:35.109|56=ACCUMULATOR|98=0|108=30|10=238|
20250704-01:47:35.118 : 8=FIX.4.4|9=75|35=A|34=4|49=ACCUMULATOR|52=20250704-01:47:35.117|56=GENERATOR|98=0|108=30|10=237|
20250704-01:47:36.111 : 8=FIX.4.4|9=169|35=D|34=5|49=GENERATOR|52=20250704-01:47:36.104|56=ACCUMULATOR|11=bd38a8f0-1080-4fee-ae89-a950249ea0ac|38=2000|40=2|44=20000|54=1|55=PETR4|59=0|60=20250704-01:47:36.104|10=236|
20250704-01:47:36.117 : 8=FIX.4.4|9=193|35=8|34=5|49=ACCUMULATOR|52=20250704-01:47:36.112|56=GENERATOR|6=20000|14=2000|17=48a79164-4a9b-43e4-8f1d-470a47ae090f|37=448d2dea-0a61-4d30-a6bc-05ea4c0958c7|39=0|54=1|55=PETR4|150=0|151=2000|10=038|
20250704-01:47:37.121 : 8=FIX.4.4|9=63|35=5|34=6|49=GENERATOR|52=20250704-01:47:37.121|56=ACCUMULATOR|10=196|
20250704-01:47:37.123 : 8=FIX.4.4|9=63|35=5|34=6|49=ACCUMULATOR|52=20250704-01:47:37.122|56=GENERATOR|10=197|
20250704-01:47:42.818 : 8=FIX.4.4|9=75|35=A|34=7|49=GENERATOR|52=20250704-01:47:42.816|56=ACCUMULATOR|98=0|108=30|10=244|
20250704-01:47:42.825 : 8=FIX.4.4|9=75|35=A|34=7|49=ACCUMULATOR|52=20250704-01:47:42.824|56=GENERATOR|98=0|108=30|10=243|
20250704-01:47:43.809 : 8=FIX.4.4|9=169|35=D|34=8|49=GENERATOR|52=20250704-01:47:43.807|56=ACCUMULATOR|11=a1a36f2b-7f93-404d-a81b-0a29b50bbe59|38=2000|40=2|44=20000|54=1|55=PETR4|59=0|60=20250704-01:47:43.807|10=196|
20250704-01:47:43.813 : 8=FIX.4.4|9=193|35=8|34=8|49=ACCUMULATOR|52=20250704-01:47:43.809|56=GENERATOR|6=20000|14=2000|17=25ed4fca-e466-472b-82e7-10aeb77cd47b|37=f9e24588-72d7-4413-b28e-780c71bb2682|39=0|54=1|55=PETR4|150=0|151=2000|10=031|
20250704-01:47:44.821 : 8=FIX.4.4|9=63|35=5|34=9|49=GENERATOR|52=20250704-01:47:44.820|56=ACCUMULATOR|10=203|
20250704-01:47:44.822 : 8=FIX.4.4|9=63|35=5|34=9|49=ACCUMULATOR|52=20250704-01:47:44.822|56=GENERATOR|10=205|
20250704-01:47:48.133 : 8=FIX.4.4|9=76|35=A|34=10|49=GENERATOR|52=20250704-01:47:48.132|56=ACCUMULATOR|98=0|108=30|10=028|
20250704-01:47:48.147 : 8=FIX.4.4|9=76|35=A|34=10|49=ACCUMULATOR|52=20250704-01:47:48.142|56=GENERATOR|98=0|108=30|10=029|
20250704-01:47:49.144 : 8=FIX.4.4|9=170|35=D|34=11|49=GENERATOR|52=20250704-01:47:49.141|56=ACCUMULATOR|11=c686f1a3-f08f-41d5-825a-c5053dc34aad|38=2000|40=2|44=20000|54=1|55=PETR4|59=0|60=20250704-01:47:49.141|10=231|
20250704-01:47:49.148 : 8=FIX.4.4|9=184|35=8|34=11|49=ACCUMULATOR|52=20250704-01:47:49.145|56=GENERATOR|6=0|14=0|17=561337e4-24c8-4d5e-9eb6-e52134ea8794|37=cfc06fb5-0087-4e41-89fa-008a134a7f79|39=8|54=1|55=PETR4|150=8|151=0|10=019|
20250704-01:47:49.149 : 8=FIX.4.4|9=64|35=5|34=12|49=GENERATOR|52=20250704-01:47:49.148|56=ACCUMULATOR|10=254|
20250704-01:47:49.150 : 8=FIX.4.4|9=64|35=5|34=12|49=ACCUMULATOR|52=20250704-01:47:49.149|56=GENERATOR|10=255|
20250705-13:41:23.360 : 8=FIX.4.4|9=75|35=A|34=2|49=GENERATOR|52=20250705-13:41:23.355|56=ACCUMULATOR|98=0|108=30|10=234|
20250705-13:41:23.625 : 8=FIX.4.4|9=75|35=A|34=1|49=ACCUMULATOR|52=20250705-13:41:23.553|56=GENERATOR|98=0|108=30|10=233|
20250705-13:41:23.680 : 8=FIX.4.4|9=72|35=2|34=2|49=ACCUMULATOR|52=20250705-13:41:23.625|56=GENERATOR|7=1|16=0|10=058|
20250705-13:41:23.693 : 8=FIX.4.4|9=194|35=D|34=1|43=Y|49=GENERATOR|52=20250705-13:41:23.690|56=ACCUMULATOR|122=20250705-13:40:49.201|11=ab44fbc6-7e88-4e3a-893a-f66bc29db09d|38=1|40=2|44=12|54=1|55=PETR4|59=0|60=20250705-13:40:49.134|10=014|
20250705-13:41:23.696 : 8=FIX.4.4|9=105|35=4|34=2|43=Y|49=GENERATOR|52=20250705-13:41:23.695|56=ACCUMULATOR|122=20250705-13:41:23.695|36=3|123=Y|10=003|
20250705-13:41:23.727 : 8=FIX.4.4|9=184|35=8|34=3|49=ACCUMULATOR|52=20250705-13:41:23.719|56=GENERATOR|6=12|14=1|17=cda85094-d817-4e2f-8df4-a4684d31d14d|37=344e4d38-60d4-42e2-8143-d3bb5d1b0b87|39=0|54=1|55=PETR4|150=0|151=1|10=081|
20250705-13:41:24.338 : 8=FIX.4.4|9=163|35=D|34=3|49=GENERATOR|52=20250705-13:41:24.333|56=ACCUMULATOR|11=daa33042-4999-4a6c-978f-a57e43dd4ec3|38=1|40=2|44=12|54=1|55=PETR4|59=0|60=20250705-13:41:24.332|10=114|
20250705-13:41:24.343 : 8=FIX.4.4|9=184|35=8|34=4|49=ACCUMULATOR|52=20250705-13:41:24.340|56=GENERATOR|6=12|14=1|17=500f8cca-b4de-405d-bd89-ebbf6697bf17|37=0124bea4-6c7d-48a2-a6f8-2d7a1316b247|39=0|54=1|55=PETR4|150=0|151=1|10=053|
20250705-13:41:25.349 : 8=FIX.4.4|9=63|35=5|34=4|49=GENERATOR|52=20250705-13:41:25.348|56=ACCUMULATOR|10=200|
20250705-13:41:25.353 : 8=FIX.4.4|9=63|35=5|34=5|49=ACCUMULATOR|52=20250705-13:41:25.352|56=GENERATOR|10=196|
20250705-13:44:04.452 : 8=FIX.4.4|9=75|35=A|34=5|49=GENERATOR|52=20250705-13:44:04.408|56=ACCUMULATOR|98=0|108=30|10=238|
20250705-13:44:04.547 : 8=FIX.4.4|9=75|35=A|34=6|49=ACCUMULATOR|52=20250705-13:44:04.507|56=GENERATOR|98=0|108=30|10=239|
20250705-13:44:05.318 : 8=FIX.4.4|9=163|35=D|34=6|49=GENERATOR|52=20250705-13:44:05.314|56=ACCUMULATOR|11=5c28407e-c0ec-4cd9-aa48-e754ae6dbc12|38=23|40=2|44=2|54=1|55=PETR4|59=0|60=20250705-13:44:05.307|10=252|
20250705-13:44:05.350 : 8=FIX.4.4|9=185|35=8|34=7|49=ACCUMULATOR|52=20250705-13:44:05.342|56=GENERATOR|6=2|14=23|17=ed74db9c-eeee-4f22-b3cf-23b120bd07df|37=94df7ff9-7e7a-4a42-b486-2f0d267a3a46|39=0|54=1|55=PETR4|150=0|151=23|10=016|
20250705-13:44:06.371 : 8=FIX.4.4|9=63|35=5|34=7|49=GENERATOR|52=20250705-13:44:06.371|56=ACCUMULATOR|10=201|
20250705-13:44:06.374 : 8=FIX.4.4|9=63|35=5|34=8|49=ACCUMULATOR|52=20250705-13:44:06.373|56=GENERATOR|10=204|
20250705-13:44:11.843 : 8=FIX.4.4|9=75|35=A|34=8|49=GENERATOR|52=20250705-13:44:11.842|56=ACCUMULATOR|98=0|108=30|10=241|
20250705-13:44:11.845 : 8=FIX.4.4|9=75|35=A|34=9|49=ACCUMULATOR|52=20250705-13:44:11.844|56=GENERATOR|98=0|108=30|10=244|
20250705-13:44:12.837 : 8=FIX.4.4|9=168|35=D|34=9|49=GENERATOR|52=20250705-13:44:12.835|56=ACCUMULATOR|11=79ad8a43-909c-4dee-974b-d5ae408938e5|38=23|40=2|44=200000|54=1|55=PETR4|59=0|60=20250705-13:44:12.835|10=141|
20250705-13:44:12.840 : 8=FIX.4.4|9=191|35=8|34=10|49=ACCUMULATOR|52=20250705-13:44:12.838|56=GENERATOR|6=200000|14=23|17=cbaec81d-b5f1-46e5-b252-a9f04f3b5db8|37=ab15ccbc-f728-487b-9baa-13b191e0a349|39=0|54=1|55=PETR4|150=0|151=23|10=022|
20250705-13:44:13.852 : 8=FIX.4.4|9=64|35=5|34=10|49=GENERATOR|52=20250705-13:44:13.851|56=ACCUMULATOR|10=245|
20250705-13:44:13.853 : 8=FIX.4.4|9=64|35=5|34=11|49=ACCUMULATOR|52=20250705-13:44:13.852|56=GENERATOR|10=247|
20250705-13:44:17.486 : 8=FIX.4.4|9=76|35=A|34=11|49=GENERATOR|52=20250705-13:44:17.485|56=ACCUMULATOR|98=0|108=30|10=037|
20250705-13:44:17.488 : 8=FIX.4.4|9=76|35=A|34=12|49=ACCUMULATOR|52=20250705-13:44:17.487|56=GENERATOR|98=0|108=30|10=040|
20250705-13:44:18.492 : 8=FIX.4.4|9=169|35=D|34=12|49=GENERATOR|52=20250705-13:44:18.480|56=ACCUMULATOR|11=3335e475-42eb-4a22-9d68-7c679517e145|38=23|40=2|44=200000|54=1|55=PETR4|59=0|60=20250705-13:44:18.480|10=193|
20250705-13:44:18.496 : 8=FIX.4.4|9=191|35=8|34=13|49=ACCUMULATOR|52=20250705-13:44:18.493|56=GENERATOR|6=200000|14=23|17=d1bc5dd3-07cc-4c15-be1d-ff565db9166a|37=b0ffe42a-8297-46a9-9c7f-05a061a17bd0|39=0|54=1|55=PETR4|150=0|151=23|10=196|
20250705-13:44:18.498 : 8=FIX.4.4|9=64|35=5|34=13|49=GENERATOR|52=20250705-13:44:18.497|56=ACCUMULATOR|10=003|
20250705-13:44:18.504 : 8=FIX.4.4|9=64|35=5|34=14|49=ACCUMULATOR|52=20250705-13:44:18.503|56=GENERATOR|10=248|
20250705-13:44:21.939 : 8=FIX.4.4|9=76|35=A|34=14|49=GENERATOR|52=20250705-13:44:21.938|56=ACCUMULATOR|98=0|108=30|10=038|
20250705-13:44:21.941 : 8=FIX.4.4|9=76|35=A|34=15|49=ACCUMULATOR|52=20250705-13:44:21.941|56=GENERATOR|98=0|108=30|10=033|
20250705-13:44:22.931 : 8=FIX.4.4|9=169|35=D|34=15|49=GENERATOR|52=20250705-13:44:22.928|56=ACCUMULATOR|11=5938c662-60a0-488d-ac59-35aaf7bbbb70|38=23|40=2|44=200000|54=1|55=PETR4|59=0|60=20250705-13:44:22.928|10=169|
20250705-13:44:22.934 : 8=FIX.4.4|9=191|35=8|34=16|49=ACCUMULATOR|52=20250705-13:44:22.931|56=GENERATOR|6=200000|14=23|17=4be3784d-80ad-43de-9948-36e22ddf50c9|37=2ce5f30c-d2f1-4f0e-afbd-c180f2711850|39=0|54=1|55=PETR4|150=0|151=23|10=104|
20250705-13:44:23.948 : 8=FIX.4.4|9=64|35=5|34=16|49=GENERATOR|52=20250705-13:44:23.947|56=ACCUMULATOR|10=002|
20250705-13:44:23.949 : 8=FIX.4.4|9=64|35=5|34=17|49=ACCUMULATOR|52=20250705-13:44:23.948|56=GENERATOR|10=004|
20250705-13:44:28.839 : 8=FIX.4.4|9=76|35=A|34=17|49=GENERATOR|52=20250705-13:44:28.838|56=ACCUMULATOR|98=0|108=30|10=047|
20250705-13:44:28.841 : 8=FIX.4.4|9=76|35=A|34=18|49=ACCUMULATOR|52=20250705-13:44:28.841|56=GENERATOR|98=0|108=30|10=042|
20250705-13:44:29.845 : 8=FIX.4.4|9=171|35=D|34=18|49=GENERATOR|52=20250705-13:44:29.841|56=ACCUMULATOR|11=50227025-0e00-43dd-93d9-43b2ac49269c|38=23|40=2|44=20000000|54=1|55=PETR4|59=0|60=20250705-13:44:29.840|10=057|
20250705-13:44:29.848 : 8=FIX.4.4|9=184|35=8|34=19|49=ACCUMULATOR|52=20250705-13:44:29.846|56=GENERATOR|6=0|14=0|17=061436dc-bf5b-46bc-a24b-53115e843b26|37=2fe8029f-f964-4bf6-8fbe-70680afb9f55|39=8|54=1|55=PETR4|150=8|151=0|10=218|
20250705-13:44:29.850 : 8=FIX.4.4|9=64|35=5|34=19|49=GENERATOR|52=20250705-13:44:29.849|56=ACCUMULATOR|10=012|
20250705-13:44:29.851 : 8=FIX.4.4|9=64|35=5|34=20|49=ACCUMULATOR|52=20250705-13:44:29.850|56=GENERATOR|10=252|
