8=FIX.4.4|9=81|35=A|34=1|49=GENERATOR|52=20250723-03:55:22.485|56=ACCUMULATOR|98=0|108=30|141=Y|10=026|8=FIX.4.4|9=142|35=D|34=2|49=GENERATOR|52=20250723-03:55:50.056|56=ACCUMULATOR|11=7132a8973ac2|38=22|40=2|44=22.0|54=1|55=VALE3|59=0|60=20250723-03:55:50.049|10=119|8=FIX.4.4|9=142|35=D|34=3|49=GENERATOR|52=20250723-03:55:54.106|56=ACCUMULATOR|11=8b0bdfbccc16|38=22|40=2|44=22.0|54=1|55=VALE3|59=0|60=20250723-03:55:54.106|10=095|8=FIX.4.4|9=142|35=D|34=4|49=GENERATOR|52=20250723-03:55:54.902|56=ACCUMULATOR|11=ed7dead595cb|38=22|40=2|44=22.0|54=1|55=VALE3|59=0|60=20250723-03:55:54.902|10=118|8=FIX.4.4|9=142|35=D|34=5|49=GENERATOR|52=20250723-03:55:55.987|56=ACCUMULATOR|11=5324eaf41946|38=22|40=2|44=22.0|54=1|55=VALE3|59=0|60=20250723-03:55:55.987|10=159|8=FIX.4.4|9=142|35=D|34=6|49=GENERATOR|52=20250723-03:55:56.790|56=ACCUMULATOR|11=52d81b17bb08|38=22|40=2|44=22.0|54=1|55=VALE3|59=0|60=20250723-03:55:56.790|10=186|8=FIX.4.4|9=142|35=D|34=7|49=GENERATOR|52=20250723-03:55:57.589|56=ACCUMULATOR|11=20109111def6|38=22|40=2|44=22.0|54=1|55=VALE3|59=0|60=20250723-03:55:57.589|10=147|8=FIX.4.4|9=142|35=D|34=8|49=GENERATOR|52=20250723-03:55:58.421|56=ACCUMULATOR|11=2342bce47f7e|38=22|40=2|44=22.0|54=1|55=VALE3|59=0|60=20250723-03:55:58.421|10=230|8=FIX.4.4|9=142|35=D|34=9|49=GENERATOR|52=20250723-03:55:59.231|56=ACCUMULATOR|11=c047679d964a|38=22|40=2|44=22.0|54=1|55=VALE3|59=0|60=20250723-03:55:59.231|10=145|8=FIX.4.4|9=143|35=D|34=10|49=GENERATOR|52=20250723-03:56:00.064|56=ACCUMULATOR|11=5045d789275f|38=22|40=2|44=22.0|54=1|55=VALE3|59=0|60=20250723-03:56:00.064|10=122|8=FIX.4.4|9=143|35=D|34=11|49=GENERATOR|52=20250723-03:56:00.860|56=ACCUMULATOR|11=5b1b90182d13|38=22|40=2|44=22.0|54=1|55=VALE3|59=0|60=20250723-03:56:00.860|10=155|8=FIX.4.4|9=64|35=0|34=12|49=GENERATOR|52=20250723-03:56:31.125|56=ACCUMULATOR|10=238|