8=FIX.4.4|9=163|35=D|34=1|49=GENERATOR|52=20250705-13:40:49.201|56=ACCUMULATOR|11=ab44fbc6-7e88-4e3a-893a-f66bc29db09d|38=1|40=2|44=12|54=1|55=PETR4|59=0|60=20250705-13:40:49.134|10=008|8=FIX.4.4|9=75|35=A|34=2|49=GENERATOR|52=20250705-13:41:23.355|56=ACCUMULATOR|98=0|108=30|10=234|8=FIX.4.4|9=163|35=D|34=3|49=GENERATOR|52=20250705-13:41:24.333|56=ACCUMULATOR|11=daa33042-4999-4a6c-978f-a57e43dd4ec3|38=1|40=2|44=12|54=1|55=PETR4|59=0|60=20250705-13:41:24.332|10=114|8=FIX.4.4|9=63|35=5|34=4|49=GENERATOR|52=20250705-13:41:25.348|56=ACCUMULATOR|10=200|8=FIX.4.4|9=75|35=A|34=5|49=GENERATOR|52=20250705-13:44:04.408|56=ACCUMULATOR|98=0|108=30|10=238|8=FIX.4.4|9=163|35=D|34=6|49=GENERATOR|52=20250705-13:44:05.314|56=ACCUMULATOR|11=5c28407e-c0ec-4cd9-aa48-e754ae6dbc12|38=23|40=2|44=2|54=1|55=PETR4|59=0|60=20250705-13:44:05.307|10=252|8=FIX.4.4|9=63|35=5|34=7|49=GENERATOR|52=20250705-13:44:06.371|56=ACCUMULATOR|10=201|8=FIX.4.4|9=75|35=A|34=8|49=GENERATOR|52=20250705-13:44:11.842|56=ACCUMULATOR|98=0|108=30|10=241|8=FIX.4.4|9=168|35=D|34=9|49=GENERATOR|52=20250705-13:44:12.835|56=ACCUMULATOR|11=79ad8a43-909c-4dee-974b-d5ae408938e5|38=23|40=2|44=200000|54=1|55=PETR4|59=0|60=20250705-13:44:12.835|10=141|8=FIX.4.4|9=64|35=5|34=10|49=GENERATOR|52=20250705-13:44:13.851|56=ACCUMULATOR|10=245|8=FIX.4.4|9=76|35=A|34=11|49=GENERATOR|52=20250705-13:44:17.485|56=ACCUMULATOR|98=0|108=30|10=037|8=FIX.4.4|9=169|35=D|34=12|49=GENERATOR|52=20250705-13:44:18.480|56=ACCUMULATOR|11=3335e475-42eb-4a22-9d68-7c679517e145|38=23|40=2|44=200000|54=1|55=PETR4|59=0|60=20250705-13:44:18.480|10=193|8=FIX.4.4|9=64|35=5|34=13|49=GENERATOR|52=20250705-13:44:18.497|56=ACCUMULATOR|10=003|8=FIX.4.4|9=76|35=A|34=14|49=GENERATOR|52=20250705-13:44:21.938|56=ACCUMULATOR|98=0|108=30|10=038|8=FIX.4.4|9=169|35=D|34=15|49=GENERATOR|52=20250705-13:44:22.928|56=ACCUMULATOR|11=5938c662-60a0-488d-ac59-35aaf7bbbb70|38=23|40=2|44=200000|54=1|55=PETR4|59=0|60=20250705-13:44:22.928|10=169|8=FIX.4.4|9=64|35=5|34=16|49=GENERATOR|52=20250705-13:44:23.947|56=ACCUMULATOR|10=002|8=FIX.4.4|9=76|35=A|34=17|49=GENERATOR|52=20250705-13:44:28.838|56=ACCUMULATOR|98=0|108=30|10=047|8=FIX.4.4|9=171|35=D|34=18|49=GENERATOR|52=20250705-13:44:29.841|56=ACCUMULATOR|11=50227025-0e00-43dd-93d9-43b2ac49269c|38=23|40=2|44=20000000|54=1|55=PETR4|59=0|60=20250705-13:44:29.840|10=057|8=FIX.4.4|9=64|35=5|34=19|49=GENERATOR|52=20250705-13:44:29.849|56=ACCUMULATOR|10=012|